{
  "contractName": "DecentralBank",
  "abi": [
    {
      "inputs": [
        {
          "internalType": "contract RWD",
          "name": "_rwd",
          "type": "address"
        },
        {
          "internalType": "contract Tether",
          "name": "_tether",
          "type": "address"
        }
      ],
      "stateMutability": "nonpayable",
      "type": "constructor"
    },
    {
      "inputs": [
        {
          "internalType": "address",
          "name": "",
          "type": "address"
        }
      ],
      "name": "balanceOf",
      "outputs": [
        {
          "internalType": "uint256",
          "name": "",
          "type": "uint256"
        }
      ],
      "stateMutability": "view",
      "type": "function",
      "constant": true
    },
    {
      "inputs": [],
      "name": "lastUpdateTime",
      "outputs": [
        {
          "internalType": "uint256",
          "name": "",
          "type": "uint256"
        }
      ],
      "stateMutability": "view",
      "type": "function",
      "constant": true
    },
    {
      "inputs": [],
      "name": "name",
      "outputs": [
        {
          "internalType": "string",
          "name": "",
          "type": "string"
        }
      ],
      "stateMutability": "view",
      "type": "function",
      "constant": true
    },
    {
      "inputs": [],
      "name": "owner",
      "outputs": [
        {
          "internalType": "address",
          "name": "",
          "type": "address"
        }
      ],
      "stateMutability": "view",
      "type": "function",
      "constant": true
    },
    {
      "inputs": [],
      "name": "rewardPerTokenStored",
      "outputs": [
        {
          "internalType": "uint256",
          "name": "",
          "type": "uint256"
        }
      ],
      "stateMutability": "view",
      "type": "function",
      "constant": true
    },
    {
      "inputs": [],
      "name": "rewardRate",
      "outputs": [
        {
          "internalType": "uint256",
          "name": "",
          "type": "uint256"
        }
      ],
      "stateMutability": "view",
      "type": "function",
      "constant": true
    },
    {
      "inputs": [
        {
          "internalType": "address",
          "name": "",
          "type": "address"
        }
      ],
      "name": "rewards",
      "outputs": [
        {
          "internalType": "uint256",
          "name": "",
          "type": "uint256"
        }
      ],
      "stateMutability": "view",
      "type": "function",
      "constant": true
    },
    {
      "inputs": [],
      "name": "rwd",
      "outputs": [
        {
          "internalType": "contract RWD",
          "name": "",
          "type": "address"
        }
      ],
      "stateMutability": "view",
      "type": "function",
      "constant": true
    },
    {
      "inputs": [],
      "name": "tether",
      "outputs": [
        {
          "internalType": "contract Tether",
          "name": "",
          "type": "address"
        }
      ],
      "stateMutability": "view",
      "type": "function",
      "constant": true
    },
    {
      "inputs": [],
      "name": "totalSupply",
      "outputs": [
        {
          "internalType": "uint256",
          "name": "",
          "type": "uint256"
        }
      ],
      "stateMutability": "view",
      "type": "function",
      "constant": true
    },
    {
      "inputs": [
        {
          "internalType": "address",
          "name": "",
          "type": "address"
        }
      ],
      "name": "userRewardPerTokenPaid",
      "outputs": [
        {
          "internalType": "uint256",
          "name": "",
          "type": "uint256"
        }
      ],
      "stateMutability": "view",
      "type": "function",
      "constant": true
    },
    {
      "inputs": [],
      "name": "rewardPerToken",
      "outputs": [
        {
          "internalType": "uint256",
          "name": "",
          "type": "uint256"
        }
      ],
      "stateMutability": "view",
      "type": "function",
      "constant": true
    },
    {
      "inputs": [
        {
          "internalType": "address",
          "name": "_account",
          "type": "address"
        }
      ],
      "name": "earned",
      "outputs": [
        {
          "internalType": "uint256",
          "name": "",
          "type": "uint256"
        }
      ],
      "stateMutability": "view",
      "type": "function",
      "constant": true
    },
    {
      "inputs": [
        {
          "internalType": "uint256",
          "name": "_amount",
          "type": "uint256"
        }
      ],
      "name": "stake",
      "outputs": [],
      "stateMutability": "nonpayable",
      "type": "function"
    },
    {
      "inputs": [],
      "name": "unstake",
      "outputs": [],
      "stateMutability": "nonpayable",
      "type": "function"
    },
    {
      "inputs": [],
      "name": "getReward",
      "outputs": [],
      "stateMutability": "nonpayable",
      "type": "function"
    }
  ],
  "bytecode": "0x60806040526040518060400160405280600e81526020017f446563656e7472616c2042616e6b000000000000000000000000000000000000815250600090816200004a9190620003ee565b50610e1060186200005c919062000504565b69021e19e0c9bab24000006200007391906200057e565b6004553480156200008357600080fd5b5060405162001888380380620018888339818101604052810190620000a9919062000679565b33600160006101000a81548173ffffffffffffffffffffffffffffffffffffffff021916908373ffffffffffffffffffffffffffffffffffffffff16021790555081600360006101000a81548173ffffffffffffffffffffffffffffffffffffffff021916908373ffffffffffffffffffffffffffffffffffffffff16021790555080600260006101000a81548173ffffffffffffffffffffffffffffffffffffffff021916908373ffffffffffffffffffffffffffffffffffffffff1602179055505050620006c0565b600081519050919050565b7f4e487b7100000000000000000000000000000000000000000000000000000000600052604160045260246000fd5b7f4e487b7100000000000000000000000000000000000000000000000000000000600052602260045260246000fd5b60006002820490506001821680620001f657607f821691505b6020821081036200020c576200020b620001ae565b5b50919050565b60008190508160005260206000209050919050565b60006020601f8301049050919050565b600082821b905092915050565b600060088302620002767fffffffffffffffffffffffffffffffffffffffffffffffffffffffffffffffff8262000237565b62000282868362000237565b95508019841693508086168417925050509392505050565b6000819050919050565b6000819050919050565b6000620002cf620002c9620002c3846200029a565b620002a4565b6200029a565b9050919050565b6000819050919050565b620002eb83620002ae565b62000303620002fa82620002d6565b84845462000244565b825550505050565b600090565b6200031a6200030b565b62000327818484620002e0565b505050565b5b818110156200034f576200034360008262000310565b6001810190506200032d565b5050565b601f8211156200039e57620003688162000212565b620003738462000227565b8101602085101562000383578190505b6200039b620003928562000227565b8301826200032c565b50505b505050565b600082821c905092915050565b6000620003c360001984600802620003a3565b1980831691505092915050565b6000620003de8383620003b0565b9150826002028217905092915050565b620003f98262000174565b67ffffffffffffffff8111156200041557620004146200017f565b5b620004218254620001dd565b6200042e82828562000353565b600060209050601f83116001811462000466576000841562000451578287015190505b6200045d8582620003d0565b865550620004cd565b601f198416620004768662000212565b60005b82811015620004a05784890151825560018201915060208501945060208101905062000479565b86831015620004c05784890151620004bc601f891682620003b0565b8355505b6001600288020188555050505b505050505050565b7f4e487b7100000000000000000000000000000000000000000000000000000000600052601160045260246000fd5b600062000511826200029a565b91506200051e836200029a565b92508282026200052e816200029a565b91508282048414831517620005485762000547620004d5565b5b5092915050565b7f4e487b7100000000000000000000000000000000000000000000000000000000600052601260045260246000fd5b60006200058b826200029a565b915062000598836200029a565b925082620005ab57620005aa6200054f565b5b828204905092915050565b600080fd5b600073ffffffffffffffffffffffffffffffffffffffff82169050919050565b6000620005e882620005bb565b9050919050565b6000620005fc82620005db565b9050919050565b6200060e81620005ef565b81146200061a57600080fd5b50565b6000815190506200062e8162000603565b92915050565b60006200064182620005db565b9050919050565b620006538162000634565b81146200065f57600080fd5b50565b600081519050620006738162000648565b92915050565b60008060408385031215620006935762000692620005b6565b5b6000620006a3858286016200061d565b9250506020620006b68582860162000662565b9150509250929050565b6111b880620006d06000396000f3fe608060405234801561001057600080fd5b50600436106100ff5760003560e01c806370a0823111610097578063a694fc3a11610066578063a694fc3a1461028c578063c8f33c91146102a8578063cd3daf9d146102c6578063df136d65146102e4576100ff565b806370a08231146101f05780637b0a47ee146102205780638b8763471461023e5780638da5cb5b1461026e576100ff565b80631a8972d3116100d35780631a8972d3146101a05780632def6620146101be5780633d18b912146101c85780635efc071a146101d2576100ff565b80628cc2621461010457806306fdde03146101345780630700037d1461015257806318160ddd14610182575b600080fd5b61011e60048036038101906101199190610c46565b610302565b60405161012b9190610c8c565b60405180910390f35b61013c610404565b6040516101499190610d37565b60405180910390f35b61016c60048036038101906101679190610c46565b610492565b6040516101799190610c8c565b60405180910390f35b61018a6104aa565b6040516101979190610c8c565b60405180910390f35b6101a86104b0565b6040516101b59190610db8565b60405180910390f35b6101c66104d6565b005b6101d0610711565b005b6101da6108f1565b6040516101e79190610df4565b60405180910390f35b61020a60048036038101906102059190610c46565b610917565b6040516102179190610c8c565b60405180910390f35b61022861092f565b6040516102359190610c8c565b60405180910390f35b61025860048036038101906102539190610c46565b610935565b6040516102659190610c8c565b60405180910390f35b61027661094d565b6040516102839190610e1e565b60405180910390f35b6102a660048036038101906102a19190610e65565b610973565b005b6102b0610b74565b6040516102bd9190610c8c565b60405180910390f35b6102ce610b7a565b6040516102db9190610c8c565b60405180910390f35b6102ec610bdd565b6040516102f99190610c8c565b60405180910390f35b6000670de0b6b3a7640000600760008473ffffffffffffffffffffffffffffffffffffffff1673ffffffffffffffffffffffffffffffffffffffff16815260200190815260200160002054610355610b7a565b61035f9190610ec1565b600a60008573ffffffffffffffffffffffffffffffffffffffff1673ffffffffffffffffffffffffffffffffffffffff168152602001908152602001600020546103a99190610ef5565b6103b39190610f66565b600860008473ffffffffffffffffffffffffffffffffffffffff1673ffffffffffffffffffffffffffffffffffffffff168152602001908152602001600020546103fd9190610f97565b9050919050565b6000805461041190610ffa565b80601f016020809104026020016040519081016040528092919081815260200182805461043d90610ffa565b801561048a5780601f1061045f5761010080835404028352916020019161048a565b820191906000526020600020905b81548152906001019060200180831161046d57829003601f168201915b505050505081565b60086020528060005260406000206000915090505481565b60095481565b600360009054906101000a900473ffffffffffffffffffffffffffffffffffffffff1681565b336104df610b7a565b600681905550426005819055506104f581610302565b600860008373ffffffffffffffffffffffffffffffffffffffff1673ffffffffffffffffffffffffffffffffffffffff16815260200190815260200160002081905550600654600760008373ffffffffffffffffffffffffffffffffffffffff1673ffffffffffffffffffffffffffffffffffffffff168152602001908152602001600020819055506000600a60003373ffffffffffffffffffffffffffffffffffffffff1673ffffffffffffffffffffffffffffffffffffffff16815260200190815260200160002054116105ca57600080fd5b6000600a60003373ffffffffffffffffffffffffffffffffffffffff1673ffffffffffffffffffffffffffffffffffffffff16815260200190815260200160002054905080600960008282546106209190610ec1565b925050819055506000600a60003373ffffffffffffffffffffffffffffffffffffffff1673ffffffffffffffffffffffffffffffffffffffff16815260200190815260200160002081905550600260009054906101000a900473ffffffffffffffffffffffffffffffffffffffff1673ffffffffffffffffffffffffffffffffffffffff1663a9059cbb33836040518363ffffffff1660e01b81526004016106c992919061102b565b6020604051808303816000875af11580156106e8573d6000803e3d6000fd5b505050506040513d601f19601f8201168201806040525081019061070c919061108c565b505050565b3361071a610b7a565b6006819055504260058190555061073081610302565b600860008373ffffffffffffffffffffffffffffffffffffffff1673ffffffffffffffffffffffffffffffffffffffff16815260200190815260200160002081905550600654600760008373ffffffffffffffffffffffffffffffffffffffff1673ffffffffffffffffffffffffffffffffffffffff168152602001908152602001600020819055506000600860003373ffffffffffffffffffffffffffffffffffffffff1673ffffffffffffffffffffffffffffffffffffffff16815260200190815260200160002054905060008111156108ed576000600860003373ffffffffffffffffffffffffffffffffffffffff1673ffffffffffffffffffffffffffffffffffffffff16815260200190815260200160002081905550600360009054906101000a900473ffffffffffffffffffffffffffffffffffffffff1673ffffffffffffffffffffffffffffffffffffffff1663a9059cbb33836040518363ffffffff1660e01b81526004016108a892919061102b565b6020604051808303816000875af11580156108c7573d6000803e3d6000fd5b505050506040513d601f19601f820116820180604052508101906108eb919061108c565b505b5050565b600260009054906101000a900473ffffffffffffffffffffffffffffffffffffffff1681565b600a6020528060005260406000206000915090505481565b60045481565b60076020528060005260406000206000915090505481565b600160009054906101000a900473ffffffffffffffffffffffffffffffffffffffff1681565b3361097c610b7a565b6006819055504260058190555061099281610302565b600860008373ffffffffffffffffffffffffffffffffffffffff1673ffffffffffffffffffffffffffffffffffffffff16815260200190815260200160002081905550600654600760008373ffffffffffffffffffffffffffffffffffffffff1673ffffffffffffffffffffffffffffffffffffffff1681526020019081526020016000208190555060008211610a5e576040517f08c379a0000000000000000000000000000000000000000000000000000000008152600401610a559061112b565b60405180910390fd5b81600a60003373ffffffffffffffffffffffffffffffffffffffff1673ffffffffffffffffffffffffffffffffffffffff1681526020019081526020016000206000828254610aad9190610f97565b925050819055508160096000828254610ac69190610f97565b92505081905550600260009054906101000a900473ffffffffffffffffffffffffffffffffffffffff1673ffffffffffffffffffffffffffffffffffffffff166323b872dd3330856040518463ffffffff1660e01b8152600401610b2c9392919061114b565b6020604051808303816000875af1158015610b4b573d6000803e3d6000fd5b505050506040513d601f19601f82011682018060405250810190610b6f919061108c565b505050565b60055481565b60008060095403610b8f576006549050610bda565b600954670de0b6b3a764000060055442610ba99190610ec1565b600454610bb69190610ef5565b610bc09190610ef5565b610bca9190610f66565b600654610bd79190610f97565b90505b90565b60065481565b600080fd5b600073ffffffffffffffffffffffffffffffffffffffff82169050919050565b6000610c1382610be8565b9050919050565b610c2381610c08565b8114610c2e57600080fd5b50565b600081359050610c4081610c1a565b92915050565b600060208284031215610c5c57610c5b610be3565b5b6000610c6a84828501610c31565b91505092915050565b6000819050919050565b610c8681610c73565b82525050565b6000602082019050610ca16000830184610c7d565b92915050565b600081519050919050565b600082825260208201905092915050565b60005b83811015610ce1578082015181840152602081019050610cc6565b60008484015250505050565b6000601f19601f8301169050919050565b6000610d0982610ca7565b610d138185610cb2565b9350610d23818560208601610cc3565b610d2c81610ced565b840191505092915050565b60006020820190508181036000830152610d518184610cfe565b905092915050565b6000819050919050565b6000610d7e610d79610d7484610be8565b610d59565b610be8565b9050919050565b6000610d9082610d63565b9050919050565b6000610da282610d85565b9050919050565b610db281610d97565b82525050565b6000602082019050610dcd6000830184610da9565b92915050565b6000610dde82610d85565b9050919050565b610dee81610dd3565b82525050565b6000602082019050610e096000830184610de5565b92915050565b610e1881610c08565b82525050565b6000602082019050610e336000830184610e0f565b92915050565b610e4281610c73565b8114610e4d57600080fd5b50565b600081359050610e5f81610e39565b92915050565b600060208284031215610e7b57610e7a610be3565b5b6000610e8984828501610e50565b91505092915050565b7f4e487b7100000000000000000000000000000000000000000000000000000000600052601160045260246000fd5b6000610ecc82610c73565b9150610ed783610c73565b9250828203905081811115610eef57610eee610e92565b5b92915050565b6000610f0082610c73565b9150610f0b83610c73565b9250828202610f1981610c73565b91508282048414831517610f3057610f2f610e92565b5b5092915050565b7f4e487b7100000000000000000000000000000000000000000000000000000000600052601260045260246000fd5b6000610f7182610c73565b9150610f7c83610c73565b925082610f8c57610f8b610f37565b5b828204905092915050565b6000610fa282610c73565b9150610fad83610c73565b9250828201905080821115610fc557610fc4610e92565b5b92915050565b7f4e487b7100000000000000000000000000000000000000000000000000000000600052602260045260246000fd5b6000600282049050600182168061101257607f821691505b60208210810361102557611024610fcb565b5b50919050565b60006040820190506110406000830185610e0f565b61104d6020830184610c7d565b9392505050565b60008115159050919050565b61106981611054565b811461107457600080fd5b50565b60008151905061108681611060565b92915050565b6000602082840312156110a2576110a1610be3565b5b60006110b084828501611077565b91505092915050565b7f4465706f736974206861766520746f2062652067726561746572207468616e2060008201527f3000000000000000000000000000000000000000000000000000000000000000602082015250565b6000611115602183610cb2565b9150611120826110b9565b604082019050919050565b6000602082019050818103600083015261114481611108565b9050919050565b60006060820190506111606000830186610e0f565b61116d6020830185610e0f565b61117a6040830184610c7d565b94935050505056fea26469706673582212209944cbbb366327299837dff43ff2d3091c6927d2c4e22ac65130a23750cba3d664736f6c63430008130033",
  "immutableReferences": {},
  "source": "// SPDX-License-Identifier: GPL-3\r\n\r\npragma solidity ^0.8.0;\r\n\r\nimport './RWD.sol';\r\nimport './Tether.sol';\r\n\r\ncontract DecentralBank {\r\n\r\n    /* ========== STATE VARIABLES ========== */\r\n\r\n    string public name = \"Decentral Bank\";\r\n    address public owner;\r\n\r\n    // synthetix RewardStaking\r\n    // https://www.youtube.com/watch?v=pFX1-kNrJFU\r\n    // https://solidity-by-example.org/defi/staking-rewards/\r\n    // https://ethereum.stackexchange.com/questions/124024/understanding-rewardrate-and-rewardpertoken-in-synthetix-staking-contract\r\n\r\n    Tether public tether; // staking token\r\n    RWD public rwd; // reward token\r\n\r\n    uint public rewardRate = 10000 * 1e18 / ( 24 * uint(3600) ); // token reward au total par unit de temps ( la seconde )\r\n    uint public lastUpdateTime; // timestamp du dernier mouvement\r\n    uint public rewardPerTokenStored; // somme de gauche, de 0 au dernier mouvement\r\n\r\n    mapping(address => uint) public userRewardPerTokenPaid; // somme de droite, de 0 au dernier mouvement du user\r\n    mapping(address => uint) public rewards; // rewards du user non rclames jusqu'au dernier mouvement\r\n\r\n    uint public totalSupply; // total de token stak (tether)\r\n\r\n    mapping(address => uint) public balanceOf; // token tether stak par user\r\n\r\n    /* ========== CONSTRUCTOR ========== */\r\n    \r\n    constructor(RWD _rwd,Tether _tether) {\r\n        owner = msg.sender;\r\n        rwd = _rwd;\r\n        tether = _tether;\r\n    }\r\n\r\n    /* ========== MODIFIERS ========== */\r\n\r\n    modifier updateReward(address _account) {\r\n        rewardPerTokenStored = rewardPerToken();\r\n        lastUpdateTime = block.timestamp;\r\n\r\n        rewards[_account] = earned(_account);\r\n        userRewardPerTokenPaid[_account] = rewardPerTokenStored;\r\n\r\n        _;\r\n    }\r\n\r\n    /* ========== VIEWS ========== */\r\n\r\n    function rewardPerToken() public view returns (uint) {\r\n        if (totalSupply == 0) {\r\n            return rewardPerTokenStored;\r\n        }\r\n\r\n        return rewardPerTokenStored + (\r\n            ( rewardRate * ( block.timestamp - lastUpdateTime ) * 1e18 ) / totalSupply // on multiplie par 1e18 pour eviter d'arrondir  0 une trop faible valeur\r\n        );\r\n    }\r\n\r\n    function earned(address _account) public view returns (uint) {\r\n        return rewards[_account] + (\r\n            balanceOf[_account] * ( rewardPerToken() - userRewardPerTokenPaid[_account] ) / 1e18\r\n        );\r\n    }\r\n\r\n    /* ========== MUTATIVE FUNCTIONS ========== */\r\n\r\n    function stake(uint _amount) external updateReward(msg.sender) {\r\n        require(_amount > 0,\"Deposit have to be greater than 0\");\r\n        //require(tether.balanceOf(msg.sender) >= _amount,\"Insufficiant funds\"); // transferFrom already checks this\r\n\r\n        balanceOf[msg.sender] += _amount;\r\n        totalSupply += _amount;\r\n        tether.transferFrom(msg.sender,address(this),_amount);\r\n\r\n    }\r\n\r\n    function unstake() external updateReward(msg.sender) {\r\n        require(balanceOf[msg.sender] > 0);\r\n\r\n        uint amount = balanceOf[msg.sender];\r\n\r\n        totalSupply -= amount;\r\n        balanceOf[msg.sender] = 0;\r\n        tether.transfer(msg.sender,amount);\r\n    }\r\n\r\n    function getReward() external updateReward(msg.sender) {\r\n        uint reward = rewards[msg.sender];\r\n        if (reward > 0) {\r\n            rewards[msg.sender] = 0;\r\n            rwd.transfer(msg.sender, reward);\r\n        }\r\n    }\r\n\r\n}",
  "sourcePath": "C:\\Users\\delormct\\Documents\\solidity\\udemy complete dapp solidity\\defi-staking-app-starter\\defi-staking-app-starter\\src\\contracts\\DecentralBank.sol",
  "compiler": {
    "name": "solc",
    "version": "0.8.19+commit.7dd6d404.Emscripten.clang"
  },
  "schemaVersion": "3.4.13",
  "updatedAt": "2023-04-15T18:44:38.228Z",
  "networkType": "ethereum",
  "devdoc": {
    "kind": "dev",
    "methods": {},
    "version": 1
  },
  "userdoc": {
    "kind": "user",
    "methods": {},
    "version": 1
  }
}