{
  "contractName": "DecentralBank",
  "abi": [
    {
      "inputs": [
        {
          "internalType": "contract RWD",
          "name": "_rwd",
          "type": "address"
        },
        {
          "internalType": "contract FakeTether",
          "name": "_fakeTether",
          "type": "address"
        }
      ],
      "stateMutability": "nonpayable",
      "type": "constructor"
    },
    {
      "anonymous": false,
      "inputs": [
        {
          "indexed": true,
          "internalType": "address",
          "name": "user",
          "type": "address"
        },
        {
          "indexed": false,
          "internalType": "uint256",
          "name": "amount",
          "type": "uint256"
        }
      ],
      "name": "AirDrop",
      "type": "event"
    },
    {
      "anonymous": false,
      "inputs": [
        {
          "indexed": true,
          "internalType": "address",
          "name": "user",
          "type": "address"
        },
        {
          "indexed": false,
          "internalType": "uint256",
          "name": "amount",
          "type": "uint256"
        }
      ],
      "name": "GetReward",
      "type": "event"
    },
    {
      "anonymous": false,
      "inputs": [
        {
          "indexed": true,
          "internalType": "address",
          "name": "user",
          "type": "address"
        },
        {
          "indexed": false,
          "internalType": "uint256",
          "name": "amount",
          "type": "uint256"
        }
      ],
      "name": "Stake",
      "type": "event"
    },
    {
      "anonymous": false,
      "inputs": [
        {
          "indexed": true,
          "internalType": "address",
          "name": "user",
          "type": "address"
        },
        {
          "indexed": false,
          "internalType": "uint256",
          "name": "amount",
          "type": "uint256"
        }
      ],
      "name": "Unstake",
      "type": "event"
    },
    {
      "inputs": [
        {
          "internalType": "address",
          "name": "",
          "type": "address"
        }
      ],
      "name": "balanceOf",
      "outputs": [
        {
          "internalType": "uint256",
          "name": "",
          "type": "uint256"
        }
      ],
      "stateMutability": "view",
      "type": "function",
      "constant": true
    },
    {
      "inputs": [],
      "name": "fakeTether",
      "outputs": [
        {
          "internalType": "contract FakeTether",
          "name": "",
          "type": "address"
        }
      ],
      "stateMutability": "view",
      "type": "function",
      "constant": true
    },
    {
      "inputs": [],
      "name": "lastUpdateTime",
      "outputs": [
        {
          "internalType": "uint256",
          "name": "",
          "type": "uint256"
        }
      ],
      "stateMutability": "view",
      "type": "function",
      "constant": true
    },
    {
      "inputs": [],
      "name": "name",
      "outputs": [
        {
          "internalType": "string",
          "name": "",
          "type": "string"
        }
      ],
      "stateMutability": "view",
      "type": "function",
      "constant": true
    },
    {
      "inputs": [],
      "name": "owner",
      "outputs": [
        {
          "internalType": "address",
          "name": "",
          "type": "address"
        }
      ],
      "stateMutability": "view",
      "type": "function",
      "constant": true
    },
    {
      "inputs": [],
      "name": "rewardPerTokenStored",
      "outputs": [
        {
          "internalType": "uint256",
          "name": "",
          "type": "uint256"
        }
      ],
      "stateMutability": "view",
      "type": "function",
      "constant": true
    },
    {
      "inputs": [],
      "name": "rewardRate",
      "outputs": [
        {
          "internalType": "uint256",
          "name": "",
          "type": "uint256"
        }
      ],
      "stateMutability": "view",
      "type": "function",
      "constant": true
    },
    {
      "inputs": [
        {
          "internalType": "address",
          "name": "",
          "type": "address"
        }
      ],
      "name": "rewards",
      "outputs": [
        {
          "internalType": "uint256",
          "name": "",
          "type": "uint256"
        }
      ],
      "stateMutability": "view",
      "type": "function",
      "constant": true
    },
    {
      "inputs": [],
      "name": "rwd",
      "outputs": [
        {
          "internalType": "contract RWD",
          "name": "",
          "type": "address"
        }
      ],
      "stateMutability": "view",
      "type": "function",
      "constant": true
    },
    {
      "inputs": [],
      "name": "totalSupply",
      "outputs": [
        {
          "internalType": "uint256",
          "name": "",
          "type": "uint256"
        }
      ],
      "stateMutability": "view",
      "type": "function",
      "constant": true
    },
    {
      "inputs": [
        {
          "internalType": "address",
          "name": "",
          "type": "address"
        }
      ],
      "name": "userRewardPerTokenPaid",
      "outputs": [
        {
          "internalType": "uint256",
          "name": "",
          "type": "uint256"
        }
      ],
      "stateMutability": "view",
      "type": "function",
      "constant": true
    },
    {
      "inputs": [],
      "name": "rewardPerToken",
      "outputs": [
        {
          "internalType": "uint256",
          "name": "",
          "type": "uint256"
        }
      ],
      "stateMutability": "view",
      "type": "function",
      "constant": true
    },
    {
      "inputs": [
        {
          "internalType": "address",
          "name": "_account",
          "type": "address"
        }
      ],
      "name": "earned",
      "outputs": [
        {
          "internalType": "uint256",
          "name": "",
          "type": "uint256"
        }
      ],
      "stateMutability": "view",
      "type": "function",
      "constant": true
    },
    {
      "inputs": [
        {
          "internalType": "uint256",
          "name": "_amount",
          "type": "uint256"
        }
      ],
      "name": "stake",
      "outputs": [],
      "stateMutability": "nonpayable",
      "type": "function"
    },
    {
      "inputs": [],
      "name": "unstake",
      "outputs": [],
      "stateMutability": "nonpayable",
      "type": "function"
    },
    {
      "inputs": [],
      "name": "getReward",
      "outputs": [],
      "stateMutability": "nonpayable",
      "type": "function"
    },
    {
      "inputs": [],
      "name": "airDrop",
      "outputs": [],
      "stateMutability": "nonpayable",
      "type": "function"
    }
  ],
  "bytecode": "0x60806040526040518060400160405280600e81526020017f446563656e7472616c2042616e6b000000000000000000000000000000000000815250600090816200004a9190620003ee565b50610e1060186200005c919062000504565b69021e19e0c9bab24000006200007391906200057e565b6004553480156200008357600080fd5b5060405162001c0938038062001c098339818101604052810190620000a9919062000679565b33600160006101000a81548173ffffffffffffffffffffffffffffffffffffffff021916908373ffffffffffffffffffffffffffffffffffffffff16021790555081600360006101000a81548173ffffffffffffffffffffffffffffffffffffffff021916908373ffffffffffffffffffffffffffffffffffffffff16021790555080600260006101000a81548173ffffffffffffffffffffffffffffffffffffffff021916908373ffffffffffffffffffffffffffffffffffffffff1602179055505050620006c0565b600081519050919050565b7f4e487b7100000000000000000000000000000000000000000000000000000000600052604160045260246000fd5b7f4e487b7100000000000000000000000000000000000000000000000000000000600052602260045260246000fd5b60006002820490506001821680620001f657607f821691505b6020821081036200020c576200020b620001ae565b5b50919050565b60008190508160005260206000209050919050565b60006020601f8301049050919050565b600082821b905092915050565b600060088302620002767fffffffffffffffffffffffffffffffffffffffffffffffffffffffffffffffff8262000237565b62000282868362000237565b95508019841693508086168417925050509392505050565b6000819050919050565b6000819050919050565b6000620002cf620002c9620002c3846200029a565b620002a4565b6200029a565b9050919050565b6000819050919050565b620002eb83620002ae565b62000303620002fa82620002d6565b84845462000244565b825550505050565b600090565b6200031a6200030b565b62000327818484620002e0565b505050565b5b818110156200034f576200034360008262000310565b6001810190506200032d565b5050565b601f8211156200039e57620003688162000212565b620003738462000227565b8101602085101562000383578190505b6200039b620003928562000227565b8301826200032c565b50505b505050565b600082821c905092915050565b6000620003c360001984600802620003a3565b1980831691505092915050565b6000620003de8383620003b0565b9150826002028217905092915050565b620003f98262000174565b67ffffffffffffffff8111156200041557620004146200017f565b5b620004218254620001dd565b6200042e82828562000353565b600060209050601f83116001811462000466576000841562000451578287015190505b6200045d8582620003d0565b865550620004cd565b601f198416620004768662000212565b60005b82811015620004a05784890151825560018201915060208501945060208101905062000479565b86831015620004c05784890151620004bc601f891682620003b0565b8355505b6001600288020188555050505b505050505050565b7f4e487b7100000000000000000000000000000000000000000000000000000000600052601160045260246000fd5b600062000511826200029a565b91506200051e836200029a565b92508282026200052e816200029a565b91508282048414831517620005485762000547620004d5565b5b5092915050565b7f4e487b7100000000000000000000000000000000000000000000000000000000600052601260045260246000fd5b60006200058b826200029a565b915062000598836200029a565b925082620005ab57620005aa6200054f565b5b828204905092915050565b600080fd5b600073ffffffffffffffffffffffffffffffffffffffff82169050919050565b6000620005e882620005bb565b9050919050565b6000620005fc82620005db565b9050919050565b6200060e81620005ef565b81146200061a57600080fd5b50565b6000815190506200062e8162000603565b92915050565b60006200064182620005db565b9050919050565b620006538162000634565b81146200065f57600080fd5b50565b600081519050620006738162000648565b92915050565b60008060408385031215620006935762000692620005b6565b5b6000620006a3858286016200061d565b9250506020620006b68582860162000662565b9150509250929050565b61153980620006d06000396000f3fe608060405234801561001057600080fd5b506004361061010a5760003560e01c806370a08231116100a2578063a694fc3a11610071578063a694fc3a14610297578063c8f33c91146102b3578063ca5d0880146102d1578063cd3daf9d146102db578063df136d65146102f95761010a565b806370a08231146101fb5780637b0a47ee1461022b5780638b876347146102495780638da5cb5b146102795761010a565b80631a8972d3116100de5780631a8972d3146101ab5780632def6620146101c95780633d18b912146101d35780636b551175146101dd5761010a565b80628cc2621461010f57806306fdde031461013f5780630700037d1461015d57806318160ddd1461018d575b600080fd5b61012960048036038101906101249190610f85565b610317565b6040516101369190610fcb565b60405180910390f35b610147610419565b6040516101549190611076565b60405180910390f35b61017760048036038101906101729190610f85565b6104a7565b6040516101849190610fcb565b60405180910390f35b6101956104bf565b6040516101a29190610fcb565b60405180910390f35b6101b36104c5565b6040516101c091906110f7565b60405180910390f35b6101d16104eb565b005b6101db610774565b005b6101e56109a2565b6040516101f29190611133565b60405180910390f35b61021560048036038101906102109190610f85565b6109c8565b6040516102229190610fcb565b60405180910390f35b6102336109e0565b6040516102409190610fcb565b60405180910390f35b610263600480360381019061025e9190610f85565b6109e6565b6040516102709190610fcb565b60405180910390f35b6102816109fe565b60405161028e919061115d565b60405180910390f35b6102b160048036038101906102ac91906111a4565b610a24565b005b6102bb610c73565b6040516102c89190610fcb565b60405180910390f35b6102d9610c79565b005b6102e3610eb9565b6040516102f09190610fcb565b60405180910390f35b610301610f1c565b60405161030e9190610fcb565b60405180910390f35b6000670de0b6b3a7640000600760008473ffffffffffffffffffffffffffffffffffffffff1673ffffffffffffffffffffffffffffffffffffffff1681526020019081526020016000205461036a610eb9565b6103749190611200565b600a60008573ffffffffffffffffffffffffffffffffffffffff1673ffffffffffffffffffffffffffffffffffffffff168152602001908152602001600020546103be9190611234565b6103c891906112a5565b600860008473ffffffffffffffffffffffffffffffffffffffff1673ffffffffffffffffffffffffffffffffffffffff1681526020019081526020016000205461041291906112d6565b9050919050565b6000805461042690611339565b80601f016020809104026020016040519081016040528092919081815260200182805461045290611339565b801561049f5780601f106104745761010080835404028352916020019161049f565b820191906000526020600020905b81548152906001019060200180831161048257829003601f168201915b505050505081565b60086020528060005260406000206000915090505481565b60095481565b600360009054906101000a900473ffffffffffffffffffffffffffffffffffffffff1681565b336104f4610eb9565b6006819055504260058190555061050a81610317565b600860008373ffffffffffffffffffffffffffffffffffffffff1673ffffffffffffffffffffffffffffffffffffffff16815260200190815260200160002081905550600654600760008373ffffffffffffffffffffffffffffffffffffffff1673ffffffffffffffffffffffffffffffffffffffff168152602001908152602001600020819055506000600a60003373ffffffffffffffffffffffffffffffffffffffff1673ffffffffffffffffffffffffffffffffffffffff16815260200190815260200160002054116105df57600080fd5b6000600a60003373ffffffffffffffffffffffffffffffffffffffff1673ffffffffffffffffffffffffffffffffffffffff16815260200190815260200160002054905080600960008282546106359190611200565b925050819055506000600a60003373ffffffffffffffffffffffffffffffffffffffff1673ffffffffffffffffffffffffffffffffffffffff16815260200190815260200160002081905550600260009054906101000a900473ffffffffffffffffffffffffffffffffffffffff1673ffffffffffffffffffffffffffffffffffffffff1663a9059cbb33836040518363ffffffff1660e01b81526004016106de92919061136a565b6020604051808303816000875af11580156106fd573d6000803e3d6000fd5b505050506040513d601f19601f8201168201806040525081019061072191906113cb565b503373ffffffffffffffffffffffffffffffffffffffff167f85082129d87b2fe11527cb1b3b7a520aeb5aa6913f88a3d8757fe40d1db02fdd826040516107689190610fcb565b60405180910390a25050565b3361077d610eb9565b6006819055504260058190555061079381610317565b600860008373ffffffffffffffffffffffffffffffffffffffff1673ffffffffffffffffffffffffffffffffffffffff16815260200190815260200160002081905550600654600760008373ffffffffffffffffffffffffffffffffffffffff1673ffffffffffffffffffffffffffffffffffffffff168152602001908152602001600020819055506000600860003373ffffffffffffffffffffffffffffffffffffffff1673ffffffffffffffffffffffffffffffffffffffff168152602001908152602001600020549050600081111561099e576000600860003373ffffffffffffffffffffffffffffffffffffffff1673ffffffffffffffffffffffffffffffffffffffff16815260200190815260200160002081905550600360009054906101000a900473ffffffffffffffffffffffffffffffffffffffff1673ffffffffffffffffffffffffffffffffffffffff1663a9059cbb33836040518363ffffffff1660e01b815260040161090b92919061136a565b6020604051808303816000875af115801561092a573d6000803e3d6000fd5b505050506040513d601f19601f8201168201806040525081019061094e91906113cb565b503373ffffffffffffffffffffffffffffffffffffffff167f25c30c62c42b51e4f667b70ef60f1f683c376f6ace28312ed45a40665e01af37826040516109959190610fcb565b60405180910390a25b5050565b600260009054906101000a900473ffffffffffffffffffffffffffffffffffffffff1681565b600a6020528060005260406000206000915090505481565b60045481565b60076020528060005260406000206000915090505481565b600160009054906101000a900473ffffffffffffffffffffffffffffffffffffffff1681565b33610a2d610eb9565b60068190555042600581905550610a4381610317565b600860008373ffffffffffffffffffffffffffffffffffffffff1673ffffffffffffffffffffffffffffffffffffffff16815260200190815260200160002081905550600654600760008373ffffffffffffffffffffffffffffffffffffffff1673ffffffffffffffffffffffffffffffffffffffff1681526020019081526020016000208190555060008211610b0f576040517f08c379a0000000000000000000000000000000000000000000000000000000008152600401610b069061146a565b60405180910390fd5b81600a60003373ffffffffffffffffffffffffffffffffffffffff1673ffffffffffffffffffffffffffffffffffffffff1681526020019081526020016000206000828254610b5e91906112d6565b925050819055508160096000828254610b7791906112d6565b92505081905550600260009054906101000a900473ffffffffffffffffffffffffffffffffffffffff1673ffffffffffffffffffffffffffffffffffffffff166323b872dd3330856040518463ffffffff1660e01b8152600401610bdd9392919061148a565b6020604051808303816000875af1158015610bfc573d6000803e3d6000fd5b505050506040513d601f19601f82011682018060405250810190610c2091906113cb565b503373ffffffffffffffffffffffffffffffffffffffff167febedb8b3c678666e7f36970bc8f57abf6d8fa2e828c0da91ea5b75bf68ed101a83604051610c679190610fcb565b60405180910390a25050565b60055481565b6000600260009054906101000a900473ffffffffffffffffffffffffffffffffffffffff1673ffffffffffffffffffffffffffffffffffffffff166370a08231336040518263ffffffff1660e01b8152600401610cd6919061115d565b602060405180830381865afa158015610cf3573d6000803e3d6000fd5b505050506040513d601f19601f82011682018060405250810190610d1791906114d6565b90506000600a60003373ffffffffffffffffffffffffffffffffffffffff1673ffffffffffffffffffffffffffffffffffffffff168152602001908152602001600020549050683635c9adc5dea000008183610d7391906112d6565b10610d7d57600080fd5b60008183610d8b91906112d6565b683635c9adc5dea00000610d9f9190611200565b9050600260009054906101000a900473ffffffffffffffffffffffffffffffffffffffff1673ffffffffffffffffffffffffffffffffffffffff166323b872dd600160009054906101000a900473ffffffffffffffffffffffffffffffffffffffff1633846040518463ffffffff1660e01b8152600401610e229392919061148a565b6020604051808303816000875af1158015610e41573d6000803e3d6000fd5b505050506040513d601f19601f82011682018060405250810190610e6591906113cb565b503373ffffffffffffffffffffffffffffffffffffffff167f2a2f3a6f457f222229acc6b14376a5d3f4344fae935675150a096e2f1056bd9882604051610eac9190610fcb565b60405180910390a2505050565b60008060095403610ece576006549050610f19565b600954670de0b6b3a764000060055442610ee89190611200565b600454610ef59190611234565b610eff9190611234565b610f0991906112a5565b600654610f1691906112d6565b90505b90565b60065481565b600080fd5b600073ffffffffffffffffffffffffffffffffffffffff82169050919050565b6000610f5282610f27565b9050919050565b610f6281610f47565b8114610f6d57600080fd5b50565b600081359050610f7f81610f59565b92915050565b600060208284031215610f9b57610f9a610f22565b5b6000610fa984828501610f70565b91505092915050565b6000819050919050565b610fc581610fb2565b82525050565b6000602082019050610fe06000830184610fbc565b92915050565b600081519050919050565b600082825260208201905092915050565b60005b83811015611020578082015181840152602081019050611005565b60008484015250505050565b6000601f19601f8301169050919050565b600061104882610fe6565b6110528185610ff1565b9350611062818560208601611002565b61106b8161102c565b840191505092915050565b60006020820190508181036000830152611090818461103d565b905092915050565b6000819050919050565b60006110bd6110b86110b384610f27565b611098565b610f27565b9050919050565b60006110cf826110a2565b9050919050565b60006110e1826110c4565b9050919050565b6110f1816110d6565b82525050565b600060208201905061110c60008301846110e8565b92915050565b600061111d826110c4565b9050919050565b61112d81611112565b82525050565b60006020820190506111486000830184611124565b92915050565b61115781610f47565b82525050565b6000602082019050611172600083018461114e565b92915050565b61118181610fb2565b811461118c57600080fd5b50565b60008135905061119e81611178565b92915050565b6000602082840312156111ba576111b9610f22565b5b60006111c88482850161118f565b91505092915050565b7f4e487b7100000000000000000000000000000000000000000000000000000000600052601160045260246000fd5b600061120b82610fb2565b915061121683610fb2565b925082820390508181111561122e5761122d6111d1565b5b92915050565b600061123f82610fb2565b915061124a83610fb2565b925082820261125881610fb2565b9150828204841483151761126f5761126e6111d1565b5b5092915050565b7f4e487b7100000000000000000000000000000000000000000000000000000000600052601260045260246000fd5b60006112b082610fb2565b91506112bb83610fb2565b9250826112cb576112ca611276565b5b828204905092915050565b60006112e182610fb2565b91506112ec83610fb2565b9250828201905080821115611304576113036111d1565b5b92915050565b7f4e487b7100000000000000000000000000000000000000000000000000000000600052602260045260246000fd5b6000600282049050600182168061135157607f821691505b6020821081036113645761136361130a565b5b50919050565b600060408201905061137f600083018561114e565b61138c6020830184610fbc565b9392505050565b60008115159050919050565b6113a881611393565b81146113b357600080fd5b50565b6000815190506113c58161139f565b92915050565b6000602082840312156113e1576113e0610f22565b5b60006113ef848285016113b6565b91505092915050565b7f4465706f736974206861766520746f2062652067726561746572207468616e2060008201527f3000000000000000000000000000000000000000000000000000000000000000602082015250565b6000611454602183610ff1565b915061145f826113f8565b604082019050919050565b6000602082019050818103600083015261148381611447565b9050919050565b600060608201905061149f600083018661114e565b6114ac602083018561114e565b6114b96040830184610fbc565b949350505050565b6000815190506114d081611178565b92915050565b6000602082840312156114ec576114eb610f22565b5b60006114fa848285016114c1565b9150509291505056fea2646970667358221220a8abaeff5974bc16e08ddde71ff770c23d688faa4ab37aceace92e63daaa4ccd64736f6c63430008130033",
  "immutableReferences": {},
  "source": "// SPDX-License-Identifier: GPL-3\r\n\r\npragma solidity ^0.8.0;\r\n\r\nimport './RWD.sol';\r\nimport './FakeTether.sol';\r\n\r\ncontract DecentralBank {\r\n\r\n    /* ========== STATE VARIABLES ========== */\r\n\r\n    string public name = \"Decentral Bank\";\r\n    address public owner;\r\n\r\n    // synthetix RewardStaking\r\n    // https://www.youtube.com/watch?v=pFX1-kNrJFU\r\n    // https://solidity-by-example.org/defi/staking-rewards/\r\n    // https://ethereum.stackexchange.com/questions/124024/understanding-rewardrate-and-rewardpertoken-in-synthetix-staking-contract\r\n\r\n    FakeTether public fakeTether; // staking token\r\n    RWD public rwd; // reward token\r\n\r\n    uint public rewardRate = 10000 * 1e18 / ( 24 * uint(3600) ); // token reward au total par unit de temps ( la seconde ) = 10000 par jour\r\n    uint public lastUpdateTime; // timestamp du dernier mouvement\r\n    uint public rewardPerTokenStored; // somme de gauche, de 0 au dernier mouvement\r\n\r\n    mapping(address => uint) public userRewardPerTokenPaid; // somme de droite, de 0 au dernier mouvement du user\r\n    mapping(address => uint) public rewards; // rewards du user non rclames jusqu'au dernier mouvement\r\n\r\n    uint public totalSupply; // total de token stak (fakeTether)\r\n\r\n    mapping(address => uint) public balanceOf; // token fakeTether stak par user\r\n\r\n    event Stake(address indexed user, uint amount);\r\n    event Unstake(address indexed user, uint amount);\r\n    event GetReward(address indexed user, uint amount);\r\n    event AirDrop(address indexed user, uint amount);\r\n\r\n    /* ========== CONSTRUCTOR ========== */\r\n    \r\n    constructor(RWD _rwd,FakeTether _fakeTether) {\r\n        owner = msg.sender;\r\n        rwd = _rwd;\r\n        fakeTether = _fakeTether;\r\n    }\r\n\r\n    /* ========== MODIFIERS ========== */\r\n\r\n    modifier updateReward(address _account) {\r\n        rewardPerTokenStored = rewardPerToken();\r\n        lastUpdateTime = block.timestamp;\r\n\r\n        rewards[_account] = earned(_account);\r\n        userRewardPerTokenPaid[_account] = rewardPerTokenStored;\r\n\r\n        _;\r\n    }\r\n\r\n    /* ========== VIEWS ========== */\r\n\r\n    function rewardPerToken() public view returns (uint) {\r\n        if (totalSupply == 0) {\r\n            return rewardPerTokenStored;\r\n        }\r\n\r\n        return rewardPerTokenStored + (\r\n            ( rewardRate * ( block.timestamp - lastUpdateTime ) * 1e18 ) / totalSupply // on multiplie par 1e18 pour eviter d'arrondir  0 une trop faible valeur\r\n        );\r\n    }\r\n\r\n    function earned(address _account) public view returns (uint) {\r\n        return rewards[_account] + (\r\n            balanceOf[_account] * ( rewardPerToken() - userRewardPerTokenPaid[_account] ) / 1e18\r\n        );\r\n    }\r\n\r\n    /* ========== MUTATIVE FUNCTIONS ========== */\r\n\r\n    function stake(uint _amount) external updateReward(msg.sender) {\r\n        require(_amount > 0,\"Deposit have to be greater than 0\");\r\n        //require(fakeTether.balanceOf(msg.sender) >= _amount,\"Insufficiant funds\"); // transferFrom already checks this\r\n\r\n        balanceOf[msg.sender] += _amount;\r\n        totalSupply += _amount;\r\n        fakeTether.transferFrom(msg.sender,address(this),_amount);\r\n        emit Stake(msg.sender, _amount);\r\n    }\r\n\r\n    function unstake() external updateReward(msg.sender) {\r\n        require(balanceOf[msg.sender] > 0);\r\n\r\n        uint amount = balanceOf[msg.sender];\r\n\r\n        totalSupply -= amount;\r\n        balanceOf[msg.sender] = 0;\r\n        fakeTether.transfer(msg.sender,amount);\r\n        emit Unstake(msg.sender, amount);\r\n    }\r\n\r\n    function getReward() external updateReward(msg.sender) {\r\n        uint reward = rewards[msg.sender];\r\n        if (reward > 0) {\r\n            rewards[msg.sender] = 0;\r\n            rwd.transfer(msg.sender, reward);\r\n            emit GetReward(msg.sender, reward);\r\n        }\r\n    }\r\n\r\n    function airDrop() external {\r\n        uint tether = fakeTether.balanceOf(msg.sender);\r\n        uint staked = balanceOf[msg.sender];\r\n        require(tether + staked < 1000000000000000000000); // < 1000\r\n        uint amount = 1000000000000000000000 - ( tether + staked );\r\n        fakeTether.transferFrom(owner, msg.sender, amount);\r\n        emit AirDrop(msg.sender, amount);\r\n    }\r\n\r\n}",
  "sourcePath": "C:\\Users\\delormct\\Documents\\solidity\\udemy complete dapp solidity\\defi-staking-app-starter\\defi-staking-app-starter\\src\\contracts\\DecentralBank.sol",
  "compiler": {
    "name": "solc",
    "version": "0.8.19+commit.7dd6d404.Emscripten.clang"
  },
  "schemaVersion": "3.4.13",
  "updatedAt": "2023-04-25T15:41:22.518Z",
  "networkType": "ethereum",
  "devdoc": {
    "kind": "dev",
    "methods": {},
    "version": 1
  },
  "userdoc": {
    "kind": "user",
    "methods": {},
    "version": 1
  }
}