{
  "contractName": "Migrations",
  "abi": [
    {
      "inputs": [],
      "stateMutability": "nonpayable",
      "type": "constructor"
    },
    {
      "inputs": [],
      "name": "lastCompletedMigration",
      "outputs": [
        {
          "internalType": "uint256",
          "name": "",
          "type": "uint256"
        }
      ],
      "stateMutability": "view",
      "type": "function",
      "constant": true
    },
    {
      "inputs": [],
      "name": "owner",
      "outputs": [
        {
          "internalType": "address",
          "name": "",
          "type": "address"
        }
      ],
      "stateMutability": "view",
      "type": "function",
      "constant": true
    },
    {
      "inputs": [
        {
          "internalType": "uint256",
          "name": "completed",
          "type": "uint256"
        }
      ],
      "name": "setCompleted",
      "outputs": [],
      "stateMutability": "nonpayable",
      "type": "function"
    },
    {
      "inputs": [
        {
          "internalType": "address",
          "name": "new_address",
          "type": "address"
        }
      ],
      "name": "update",
      "outputs": [],
      "stateMutability": "nonpayable",
      "type": "function"
    }
  ],
  "bytecode": "0x608060405234801561001057600080fd5b50336000806101000a81548173ffffffffffffffffffffffffffffffffffffffff021916908373ffffffffffffffffffffffffffffffffffffffff16021790555061039c806100606000396000f3fe608060405234801561001057600080fd5b506004361061004c5760003560e01c80631c1b8772146100515780638da5cb5b1461006d578063fbdbad3c1461008b578063fdacd576146100a9575b600080fd5b61006b60048036038101906100669190610282565b6100c5565b005b610075610193565b60405161008291906102be565b60405180910390f35b6100936101b7565b6040516100a091906102f2565b60405180910390f35b6100c360048036038101906100be9190610339565b6101bd565b005b60008054906101000a900473ffffffffffffffffffffffffffffffffffffffff1673ffffffffffffffffffffffffffffffffffffffff163373ffffffffffffffffffffffffffffffffffffffff161461011d57600080fd5b60008190508073ffffffffffffffffffffffffffffffffffffffff1663fdacd5766001546040518263ffffffff1660e01b815260040161015d91906102f2565b600060405180830381600087803b15801561017757600080fd5b505af115801561018b573d6000803e3d6000fd5b505050505050565b60008054906101000a900473ffffffffffffffffffffffffffffffffffffffff1681565b60015481565b60008054906101000a900473ffffffffffffffffffffffffffffffffffffffff1673ffffffffffffffffffffffffffffffffffffffff163373ffffffffffffffffffffffffffffffffffffffff161461021557600080fd5b8060018190555050565b600080fd5b600073ffffffffffffffffffffffffffffffffffffffff82169050919050565b600061024f82610224565b9050919050565b61025f81610244565b811461026a57600080fd5b50565b60008135905061027c81610256565b92915050565b6000602082840312156102985761029761021f565b5b60006102a68482850161026d565b91505092915050565b6102b881610244565b82525050565b60006020820190506102d360008301846102af565b92915050565b6000819050919050565b6102ec816102d9565b82525050565b600060208201905061030760008301846102e3565b92915050565b610316816102d9565b811461032157600080fd5b50565b6000813590506103338161030d565b92915050565b60006020828403121561034f5761034e61021f565b5b600061035d84828501610324565b9150509291505056fea264697066735822122083ca5a15e63fa2a9fd7a7cb2db3b1d2e2809a8eaf5a9bc08ac40d8d15c60cf7c64736f6c63430008130033",
  "immutableReferences": {},
  "source": "// SPDX-License-Identifier: GPL-3\r\n\r\npragma solidity ^0.8.0;\r\n\r\ncontract Migrations {\r\n    address public owner;\r\n    uint public lastCompletedMigration;\r\n\r\n    constructor() {\r\n        owner = msg.sender;\r\n    }\r\n\r\n    modifier restricted() {\r\n        require(msg.sender == owner);\r\n        _;\r\n    }\r\n\r\n    function setCompleted(uint completed) public restricted {\r\n        lastCompletedMigration = completed;\r\n    }\r\n\r\n    function update(address new_address) public restricted {\r\n        Migrations upgraded = Migrations(new_address);\r\n        upgraded.setCompleted(lastCompletedMigration);\r\n    }\r\n}",
  "sourcePath": "C:\\Users\\delormct\\Documents\\solidity\\udemy complete dapp solidity\\defi-staking-app-starter\\defi-staking-app-starter\\src\\contracts\\Migrations.sol",
  "compiler": {
    "name": "solc",
    "version": "0.8.19+commit.7dd6d404.Emscripten.clang"
  },
  "schemaVersion": "3.4.13",
  "updatedAt": "2023-04-07T13:34:11.175Z",
  "networkType": "ethereum",
  "devdoc": {
    "kind": "dev",
    "methods": {},
    "version": 1
  },
  "userdoc": {
    "kind": "user",
    "methods": {},
    "version": 1
  }
}